:08000000803102288731FD2F39
:100F3A008731DC27873122000F148F140F158F1584
:100F4A000D108D100D118D118731BB2787312200AD
:100F5A000F108F100F118F110D148D140D158D1583
:100F6A008731BB278731A02F803102280030F30058
:100F7A000030F2000030F1000030F0000130F007DC
:100F8A000030F13D0030F23D0030F33DF31BDA2F23
:100F9A007308031DDB2F7208031DDB2F103070024C
:100FAA002730713B031CDA2FDB2FC32F08002100E7
:100FBA000F1022000F1021008F1022008F10210025
:100FCA000F1122000F1121008F1122008F11210011
:100FDA000D1022000D1021008D1022008D1021000D
:100FEA000D1122000D1121008D1122008D11080012
:0E0FFA00200087319D2F10342734003400343E
:020000040001F9
:04000E00EA3FFB1EAC
:00000001FF
