:0400000080317328B0
:100008007E1480312700931E0A280B281828931283
:10001800031020001C1D03140318132816282000A1
:100028001C15182820001C112700161C1C281D2828
:100038002A281610031020001C1D03140318252855
:10004800282820001C152A2820001C112100911C9A
:100058002E282F2871282000911C33283428712835
:1000680091100130F5007508F8077D307806031DFA
:100078003E283F287128552822000F148F1101307F
:10008800F5007508F707702822008F140F10432811
:1000980022000F158F10432822008F150F11F7012A
:1000A80070287908F00077088031DB208031F5006E
:1000B800F6017608003A0319622870287508003A94
:1000C80003194028013A03194828033A03194C2810
:1000D800013A031950287028F8017E100900803170
:1000E8007528813132218031F900F701F8017E103D
:1000F800200080317F288031BA208031813117215A
:10010800803181312321803181312D2180312200BC
:100118008D150D10E8302000A0000330A1008031BB
:10012800FA20803122000D158D11E8302000A00042
:100138000330A1008031FA20803122008D140D1186
:10014800E8302000A0000330A1008031FA2080317F
:1001580022000D148D10E8302000A0000330A1000B
:100168008031FA2080318B288031732821000F10CC
:1001780022000F1021008F1022008F1021000F1174
:1001880022000F1121008F1122008F1121000D1064
:1001980022000D1021008D1022008D1021000D115C
:1001A80022000D1121008D1122008D110800F2008E
:1001B8000830F300F4017208F1000730F136890BBA
:1001C800E22874357104F4000310F20D700874020B
:1001D800031CEF28F028F2287008F4020130F3021B
:1001E800031DF728F828DF28740808002000A30159
:1001F800A4010C2903302000A2009730890B0229A2
:10020800A20B0229003201302000A3070030A43DD0
:1002180021082402031D122920082302031C152982
:100228001629FE28080020001C08FC3902389C000A
:1002380087309C057C309B001C159A0108008B17A1
:100248000B1721009114200091148B15270092168A
:0E025800080021008C1623008C1208000434CC
:020000040001F9
:04000E00EA3FFB1EAC
:00000001FF
