:08000000803102288731FD2F39
:100F6A008230200095000B1DBB2FBC2FB82F0B1110
:100F7A0008008731DC27873122000F148F140F15E0
:100F8A008F150D108D100D118D118731B5278731F1
:100F9A0022000F108F100F118F110D148D140D15C3
:100FAA008D158731B5278731C12F8031022821005D
:100FBA000F1022000F1021008F1022008F10210025
:100FCA000F1122000F1121008F1122008F11210011
:100FDA000D1022000D1021008D1022008D1021000D
:100FEA000D1122000D1121008D1122008D11080012
:0E0FFA0020008731BE2F10342734003400341D
:020000040001F9
:04000E00EA3FFB1EAC
:00000001FF
