:08000000803102288731FD2F39
:100F020021000F1022000F100800FC3020009C0569
:100F12001C08873938389C00FF309B001C150800DC
:100F22003D002808E0390F38A8002C009C179B01CF
:100F32009A0123000D1008008731812787318731FC
:100F420086278731873191278731F201F3017308B0
:100F5200F1007208F000710DF10CF00C710DF10C42
:100F6200F00C70082C009B00720803399A002000D4
:100F7200911CBC2FBD2FB82F91100130F207003009
:100F8200F33D7308803AF00084307002031DCB2FCA
:100F920000307202031CCE2FCF2FA82F0030F40096
:100FA2000430F5007508F1007408F000710DF10CC1
:100FB200F00C710DF10CF00C70082C009B00740801
:100FC20003399A002000911CE72FE82FE32F91109C
:100FD200FF30F407FF30F53D7508803AF0008030AD
:100FE2007002031DF62F013074020318F92FFA2F35
:0E0FF200D32FA62F80310228200087319D2F9B
:020000040001F9
:04000E00EA3FFB1EAC
:00000001FF
