:0400000080316B28B8
:100008007E1480312100911C0A280B2869282000C1
:10001800911C0F281028692891100130F5007508E7
:10002800F8077D307806031D1A281B2869284128FF
:1000380022000F148D110130F5007508F7076828A4
:1000480022008F140F101F2822000F158F101F2851
:1000580022008F150F111F2822000D148F111F2841
:1000680022008D140D101F2822000D158D101F2839
:1000780022008D150D11F70168287908F00077081E
:10008800803198208031F500F6017608003A03198E
:100098004E2868287508003A03191C28013A0319E4
:1000A8002428033A03192828013A03192C28073A67
:1000B80003193028013A03193428033A0319382858
:1000C800013A03193C286828F8017E10090080319C
:1000D8006D288031D4208031F900F701F8017E10B5
:1000E80020008031C52821000F1022000F102100A8
:1000F8008F1022008F1021000F1122000F112100F4
:100108008F1122008F1121000D1022000D102100E7
:100118008D1022008D1021000D1122000D112100DB
:100128008D1122008D110800F2000830F300F4014F
:100138007208F1000730F136890B9F287435710475
:10014800F4000310F20D70087402031CAC28AD28EB
:10015800AF287008F4020130F302031DB428B52853
:100168009C287408080020001C08FC3902389C00F0
:1001780087309C057C309B001C159A012100911446
:1001880008008031772080318031B720803180317C
:10019800D1208031CE2880316B288B170B170800AF
:0201A800083419
:020000040001F9
:04000E00EA3FFB1EAC
:00000001FF
