:0400000080314F28D4
:100008007E1480312100911C0A280B284D282000DD
:10001800911C0F2810284D2891100130F500750803
:10002800F8077D307806031D1A281B284D2831282B
:1000380022000F148F110130F5007508F7074C28BE
:1000480022008F140F101F2822000F158F101F2851
:1000580022008F150F11F7014C287908F000770856
:100068008031B4208031F500F6017608003A031992
:100078003E284C287508003A03191C28013A031930
:100088002428033A03192828013A03192C284C2854
:10009800F8017E1009008031512881310321803117
:1000A800F900F701F8017E10200080315B288031CB
:1000B800932080318031F02080318031FC208031E4
:1000C80022008D150D10E8302000A0000330A1009B
:1000D8008031D320803122000D158D11E8302000A9
:1000E800A0000330A1008031D320803122008D147C
:1000F8000D11E8302000A0000330A1008031D3208A
:10010800803122000D148D10E8302000A00003304B
:10011800A1008031D3208031642880314F2821000C
:100128000F1022000F1021008F1022008F102100C5
:100138000F1122000F1121008F1122008F112100B1
:100148000D1022000D1021008D1022008D102100AD
:100158000D1122000D1121008D1122008D110800B2
:10016800F2000830F300F4017208F1000730F136AC
:10017800890BBB2874357104F4000310F20D700864
:100188007402031CC828C928CB287008F40201305F
:10019800F302031DD028D128B828740808002000CD
:1001A800A301A401E52803302000A2009730890BA1
:1001B800DB28A20BDB28003201302000A307003027
:1001C800A43D21082402031DEB2820082302031C58
:1001D800EE28EF28D728080020001C08FC39023830
:1001E8009C0087309C057C309B001C159A010800F8
:1001F8008B170B1721009114200091140800043468
:020000040001F9
:04000E00EA3FFB1EAC
:00000001FF
