:08000000803102288731FD2F39
:100DEE0023000C140C10080021001D148F309E05DA
:100DFE00FC309E051E119E1783309D0508002100B4
:100E0E009D149D180B2F0C2F082F1C08F1001B088A
:100E1E00F000080021000F1022000F1021008F108B
:100E2E0022008F1021000F1122000F1121008F11AF
:100E3E0022008F1121000D1022000D1021008D10A7
:100E4E0022008D1021000D1122000D1121008D1197
:100E5E0022008D1108008731112787318631F72640
:100E6E0087318631FB268731873106278731710816
:100E7E00F4007008F3007408803AF20080307202B9
:100E8E00031D4B2F8030730203184E2F4F2F592FF7
:100E9E0022000F148F100F118F110D108D100D11C8
:100EAE008D113B2F7408803AF20081307202031DBF
:100EBE00622F003073020318652F662F702F2200E9
:100ECE008F140F100F118F110D108D100D118D111C
:100EDE003B2F7408803AF20081307202031D792F85
:100EEE008030730203187C2F7D2F872F22000F1561
:100EFE008F100F108F110D108D100D118D113B2FA6
:100F0E007408803AF20082307202031D902F003076
:100F1E0073020318932F942F9E2F22008F158F107C
:100F2E000F110F100D108D100D118D113B2F740818
:100F3E00803AF20082307202031DA72F80307302B6
:100F4E000318AA2FAB2FB52F22000D148F100F11DF
:100F5E008F110F108D100D118D113B2F7408803ACB
:100F6E00F20083307202031DBE2F0030730203188D
:100F7E00C12FC22FCC2F22008D148F100F118F1165
:100F8E000D100F100D118D113B2F7408803AF200C9
:100F9E0083307202031DD52F803073020318D82FB1
:100FAE00D92FE32F22000D158F100F118F110D1059
:100FBE008D100F108D113B2F7408803AF200843083
:100FCE007202031DEC2F003073020318EF2FF02F67
:100FDE00FA2F22008D158F100F118F110D108D10FD
:100FEE000D110F103B2F3B2F80310228200087312F
:020FFE00322F90
:020000040001F9
:04000E00EA3FFB1EAC
:00000001FF
