:08000000803102288731FD2F39
:100F22002100951295111508F83905389500080029
:100F320021000F1022000F1021008F1022008F10AD
:100F420021000F1122000F1121008F1122008F1199
:100F520021000D1022000D1021008D1022008D1095
:100F620021000D1122000D1121008D1122008D1181
:100F720008008731992787318731912787312200ED
:100F82000F148F140F158F150D108D100D118D115B
:100F92008731DB27873122000F108F100F118F113D
:100FA2000D148D140D158D158731DB278731C02F58
:100FB200803102287D30F1000030F20083302000C1
:100FC2009500F301F401EE2F0B1DE82FE92FE52F19
:100FD2000B110130F3070030F43D7408803AF00041
:100FE2007208803A7002031DF82F71087302031C05
:0E0FF200FB2FFC2FE52F080020008731BA2FBF
:020000040001F9
:04000E00EA3FFB1EAC
:00000001FF
