:08000000803102288731FD2F39
:100F860021000D1423000D10080021000F1022006F
:100F96000F1021008F1022008F1008000330200050
:100FA6009C041C15FF309B000F303D00A8002C0050
:100FB6009C1766309B003F309A0508008731C8278A
:100FC60087318731C32787318731D1278731200081
:100FD6000D18EE2FEF2FF52FE6302C009B003F303B
:100FE6009A05EA2F02302C009B003F309A05EA2F23
:0A0FF6008031022820008731E12F2E
:020000040001F9
:04000E00EA3FFB1EAC
:00000001FF
