:04000000803117280C
:100008007E1480312100911E0A280B281528200013
:10001800911E0F2810281528230019089A0022007D
:100028000F107E1009008031192877308400803045
:10003800850020308600003087001030803187200E
:1000480080317E1020008031292880315A2080316B
:1000580080318D2080310330F1008A30F000563035
:10006800890B3428F00B3428F10B3428F201F30102
:100078007208203E86008701010823009A00033099
:10008800F0009830890B4628F00B46280130F2071B
:100098000030F33D00307302103003197202031C64
:1000A800562857283C285728803117283D0026080D
:1000B800E0391438A6003C002408E0391738A400B9
:1000C80021000E138E1723008E131E121E119F116E
:1000D8009C010C309B009D179E161D168B170B1745
:1000E800210091160800483465346C346C346F3440
:1000F8002C34203457346F3472346C3464342034E4
:1001080021340A340D34FE0012001E00FE0B88282C
:0C011800003421000F1022000F1408001A
:020000040001F9
:04000E00EA3FFB1EAC
:00000001FF
