:0400000080310B2818
:100008007E148031230019089A007E10090080317F
:100018000D2868308400803085002030860000304C
:10002800870010308031782080317E1020008031A8
:100038001D2880314B2080310330F1008A30F000D8
:100048005630890B2528F00B2528F10B2528F201BD
:10005800F3017208203E86008701010823009A00F8
:100068000330F0009830890B3728F00B372801301F
:10007800F2070030F33D00307302103003197202AA
:10008800031C472848282D28482880310B283D0084
:100098002608E0391438A6003C002408E03917384F
:1000A800A40021000E138E1723008E131E121E119A
:1000B8009F119C010C309B009D179E161D168B17D7
:1000C8000B17210091160800483465346C346C34E1
:1000D8006F342C34203457346F3472346C346434B5
:1000E800203421340A340D34FE0012001E00FE0BA9
:0400F800792800342F
:020000040001F9
:04000E00EA3FFB1EAC
:00000001FF
