:08000000803102288731F12F45
:100F2800FE0012001E00FE0B952F00344834653475
:100F38006C346C346F342C34203457346F3472343E
:100F48006C346434203421340A340D343D002608CE
:100F5800E0391438A6003C002408E0391738A4000A
:100F680021000E138E1723008E131E121E119F11BF
:100F78009C010C309B009D179E161D16080087319A
:100F8800AA2787310330F1008A30F0005630890BE8
:100F9800CB2FF00BCB2FF10BCB2FF201F301720803
:100FA800203E86008701010823009A000330F000E4
:100FB8009830890BDD2FF00BDD2F0130F207003060
:100FC800F33D00307302103003197202031CED2F39
:100FD800EE2FD32FC62F803102289A308400873015
:100FE8008500203086000030870010308731942734
:080FF800873120008731C32F6F
:020000040001F9
:04000E00EA3FFB1EAC
:00000001FF
