:08000000803102288731F12F45
:100F0600FE0012001E00FE0B842F00346834653488
:100F16006C346C346F342C34203477346F34723440
:100F26006C3464340A340D343D002608E039143834
:100F3600A6003C002408E0391738A40021000E134F
:100F46008E1723008E131E121E119F119C010C304A
:100F56009B009D179E161D1608008731972787311F
:100F66003230860000308700203084000030850053
:100F76000E30F00016001A00F00BBD2F2000B00155
:100F8600B1013008203E86008701010823009A003F
:100F96002000AE01AF0101302000AE070030AF3DAA
:100FA6002F08803AF00081307002031DDC2FF430E8
:100FB6002E02031CDF2FE02FCE2F01302000B007BA
:100FC6000030B13D003031020E3003193002031CEF
:100FD600ED2FEE2FC42FEE2F8031022889308400AA
:100FE6008730850032308600003087000E3087312A
:0A0FF6008327873120008731B02FD8
:020000040001F9
:04000E00EA3FFB1EAC
:00000001FF
