:08000000803102288731FD2F39
:100D500022000C1521000C110800403024009400E2
:100D6000223095009201080001308631DE2686315E
:100D7000F401003087311F2786310800F00024007D
:100D8000951370089100C52E64002400141CC92E10
:100D9000CA2EC42E11080800F20022000C114030A7
:100DA0008631BE26863172088631BE2686317108AC
:100DB0008631BE26863122000C150800F300603013
:100DC000F10012308631CC2686317308F1001330E1
:100DD0008631CC2686312030F10012308631CC2687
:100DE00086310800F300E030F10012308631CC2665
:100DF00086317308F10013308631CC268631A0305D
:100E0000F10012308631CC26863108003D002608DC
:100E1000E0391438A6003C002408E0391738A40053
:100E200021000E138E1723008E131E121E119F1108
:100E30009C010C309B009D179E161D160800F800A3
:100E4000023078020318252F262F3C2F780803192B
:100E50002A2F2B2F312FC0307404F5000030F600FC
:100E6000362F80307404F5000030F6007508F70066
:100E700077088631DE268731080022008E11210096
:100E80008E1122000E1221000E1622008E12210059
:100E90008E123C002108E0391438A1003D002308DF
:100EA000E0391038A3003C002008E0391338A000D6
:100EB0003D002508E0391138A500080087310627D4
:100EC000873187313D2787318631A82687318631A2
:100ED000AD2687318731A52787318631B426873102
:100EE000F401003087311F2787310030F40088304B
:100EF000F50087317F2787317C2F80310228F90167
:100F0000942F7508F7007408F600790876078400B6
:100F100077080318770A850000088631F2268731A2
:100F20000130F6007608F9077508F7007408F60036
:100F300079087607840077080318770A850012007D
:100F4000031DA32FA42F812F0800F101003086314B
:100F5000CC268731F10101308631CC268731203013
:100F6000F10012308631CC2687311A30F400F83087
:100F7000890BB82FF40BB82F00323C308631DE26B7
:100F800087311A30F400F830890BC42FF40BC42FCA
:100F900000320C308631DE2687311A30F400F8300A
:100FA000890BD02FF40BD02F003201308631DE2692
:100FB00087311A30F400F830890BDC2FF40BDC2F6A
:100FC00000320C308631DE2687310230F500523097
:100FD000F400A630890BEA2FF40BEA2FF50BEA2F69
:100FE000003280308631DE2687310330F4009830BD
:100FF000890BF82FF40BF82F0800200087315E2FA3
:10100000483465346C346C346F342C3420345734A9
:0E1010006F3472346C34643420342134003474
:020000040001F9
:04000E00EA3FFB1EAC
:00000001FF
