:1000000080316E28080008007E14803151282300BA
:1000100019082000CD0041304D02031C1028112882
:100020001D285B30230019020318172818281D28E3
:1000300020302000C9004908CD07303020004D0293
:10004000031C2328242841283A304D02031829286C
:100050002A2841284D08C900CA014908F0004A0869
:10006000F100210062082000CB00CC014B08F20017
:100070004C08F30083313C23803170082000CD0010
:100080004E2861304D02031C462847284E287B30FD
:100090004D0203184C284D284E282A284D082300CD
:1000A0009A002000911A5528562807288B1C592899
:1000B0005A286C288B1021005F036004031D6128FF
:1000C00062286528DF01E00169280130DF00003087
:1000D000E0008631DA2680317E10090080317028F8
:1000E00021008D319F258031E2008D31A0258031A6
:1000F000E3008D31A1258031E4008D31A2258031CE
:10010000E5004E3084000030850020308D31AE2572
:100110008031D93084000030850009308D31AE2522
:1001200080317E1020008631932E2000A700A5018B
:10013000A6017B0886008701403FA000413FA10047
:1001400020088400210885001200253A031DA928F3
:10015000AA28C8297B088600870101308107413120
:100160000318810A2100DB01DC01031000300318B1
:100170000130E100FF30DD00FF30DE007B0886004B
:100180008701403F2000AC00413FAD002C088400B7
:100190002D0885001200643A0319CF28D028DA28E8
:1001A0002C0884002D0885001200693A031DD92807
:1001B000DA286E297C088600870101088400850101
:1001C00002308107003FA800013FA9002C08013E32
:1001D000A00000302D3DA1007B088600870120088B
:1001E000C03F2108C13F2030AE00A91BF828FA28E3
:1001F0000130FB280030A4000130AE022E084E3E34
:10020000860087010A30F0000030F1002908F30071
:100210002808F2008631402680317108F800700805
:10022000F7008D31DE2580317708303E81000A30BD
:10023000F0000030F10020002908F3002808F20047
:100240008431E324803171082000A9007008A800DF
:100250000130A5070030A63D2808290403193129DB
:10026000322937292E08031D36293729FC282E0864
:1002700003193B293C2963292408031940294129F2
:1002800063290130AE022E084E3E860087012D30D4
:1002900081000130A5070030A63D63292E084E3E9F
:1002A000860087010108A000A1012008F0002108B4
:1002B000F1002708F2008531EC2580310130200063
:1002C000A0002008AE0720302E06031D68296929EA
:1002D0004E292608FC002508FB00E8292C0884008C
:1002E0002D08850012006E3A031D77297829982978
:1002F0007C0886008701403F84008501810A000850
:100300008600870121005908C03F5A08C13F2000DC
:100310002C08013EA00000302D3DA1007B08860086
:1003200087012008C03F2108C13FFB01FC01E829EB
:100330007B0886008701403FA000413FA1002008C4
:100340008400210885001200253A031DA829A92947
:10035000BF297B08860087010130810741310318DE
:10036000810A2530F0000030F1002708F2008531C5
:10037000EC2580310130FB000030FC00E8297B08CF
:10038000860087010130810741310318810A9529D0
:100390007B0886008701403FA000413FA100200864
:1003A0008400210885000008A200A3012208F000B3
:1003B0002308F1002708F2008531EC2580317B0805
:1003C000860087010130810741310318810ABA296B
:1003D00008002100B400B201B3012B088600870198
:1003E000403FAD00413FAE002D0884002E0885003F
:1003F0001200253A031DFD29FE291A2B2B08860021
:1004000087010130810741310318810ADB01DC01DA
:100410000310003003180130E100FF30DD00FF3031
:10042000DE002B0886008701403FB900413FBA003B
:10043000390884003A0885001200643A0319212A19
:10044000222A2C2A390884003A0885001200693AC9
:10045000031D2B2A2C2AC12A2C088600870101089B
:100460008400850102308107003FB500013FB600DE
:100470003908013EAD0000303A3DAE002B08860041
:1004800087012D08C03F2E08C13F2030BB00B61B9E
:100490004A2A4C2A01304D2A0030B1000130BB02FB
:1004A0003B084E3E860087010A30A0000030A100C4
:1004B0003608A3003508A200853198258131210036
:1004C0002108A8002008A7008E31122681312100C2
:1004D0002708303E81000A30A0000030A100360815
:1004E000A3003508A2008431832481312100210832
:1004F000B6002008B5000130B2070030B33D350822
:1005000036040319842A852A8A2A3B08031D892A6E
:100510008A2A4E2A3B0803198E2A8F2AB62A3108C6
:100520000319932A942AB62A0130BB023B084E3E97
:10053000860087012D3081000130B2070030B33DC5
:10054000B62A3B084E3E860087010108AD00AE0189
:100550002D08A0002E08A1003408A20085314225F4
:10056000813101302100AD002D08BB0720303B0652
:10057000031DBB2ABC2AA12A3308AC003208AB00F9
:100580003B2B390884003A08850012006E3A031D9F
:10059000CA2ACB2AE92A2C0886008701403F84001A
:1005A0008501810A0008860087015908C03F5A0862
:1005B000C13F3908013EAD0000303A3DAE002B0886
:1005C000860087012D08C03F2E08C13FAB01AC015A
:1005D0003B2B2B0886008701403FAD00413FAE001A
:1005E0002D0884002E0885001200253A031DF92AE3
:1005F000FA2A112B2B08860087010130810741312F
:100600000318810A2530A0000030A1003408A200A0
:1006100085314225813101302100AB000030AC0032
:100620003B2B2B08860087010130810741310318DD
:10063000810AE62A2B0886008701403FAD00413F32
:10064000AE002D0884002E0885000008AF00B00120
:100650002F08A0003008A1003408A20085314225EF
:10066000813121002B08860087010130810741314B
:100670000318810A0B2B0800112C7108803AF40032
:1006800080307402031D462B3A3070020318492B48
:100690004A2B7C2B72087007F4007308713DF5003B
:1006A0007508803AF60080307602031D592B3A30E7
:1006B0007402031C5C2B5D2B752B72087007F40011
:1006C0007308713DF5007408C63EF200FF30753DB9
:1006D000F3006130F0000030F10083313C238331BE
:1006E0007108FA007008F9001C2C72087007F900F4
:1006F0007308713DFA001C2C72087007F40073082F
:10070000713DF5007508803AF60080307602031DD1
:100710008B2B7B307402031C8E2B8F2B752B720856
:100720007007F4007308713DF5007408853EF2000F
:10073000FF30753DF3003030F0000030F1008331C0
:100740003C2383317108FA007008F9001C2C7108F1
:10075000803AF40080307402031DB02B61307002C7
:10076000031CB32BB42BE62B72087002F400730841
:10077000713BF5007508803AF60080307602031D63
:10078000C32B613074020318C62BC72BDF2B7008F4
:100790007202F4007108733BF5007408603EF200C9
:1007A0000030753DF3003930F0000030F100833146
:1007B0003C2383317108FA007008F9001C2C720880
:1007C0007002F9007308713BFA001C2C7208700269
:1007D000F4007308713BF5007508803AF60080302C
:1007E0007602031DF52B303074020318F82BF92B19
:1007F000DF2B70087202F4007108733BF500740877
:100800002F3EF2000030753DF3007A30F0000030EA
:10081000F10083313C2383317108FA007008F9003C
:100820001C2C21006008003A0319172CA72B5F0825
:10083000013A03193D2BA72B7A08F1007908F00043
:1008400008002100A10100308E314C2684312100A6
:10085000A10101308E314C26843120302100A100CD
:1008600012308E314C2684311A302100A400F83029
:10087000890B382CA40B382C00003C308E316126BB
:1008800084311A302100A400F830890B452CA40BC8
:10089000452C00000C308E31612684311A30210045
:1008A000A400F830890B522CA40B522C000001300C
:1008B0008E31612684311A302100A400F830890B72
:1008C0005F2CA40B5F2C00000C308E31612684312C
:1008D00002302100A5005230A400A630890B6E2CF6
:1008E000A40B6E2CA50B6E2C000080308E3161267F
:1008F000843103302100A4009730890B7D2CA40B98
:100900007D2C003208002100A601A11F882C892C13
:10091000902CA009A109A00A0319A10AA601A60A00
:10092000A31F932C942C9D2CA209A309A20A03199E
:10093000A30A0130A4002408A606A701A8012008E4
:1009400021040319A42CA52CD42CA501A50AB12C93
:100950000130A035A10D890BA92C0130A400240879
:10096000A507A11FB42CB52CA82C0130A735A80DC4
:10097000890BB62C21082302031DC02C200822025B
:10098000031CC32CC42CC92C2008A2022108A33BA1
:1009900027140130A136A00C890BCA2C0130A50206
:1009A000031DD32CD42CB52C26080319D82CD92CF4
:1009B000DE2CA709A809A70A0319A80A2808A1007C
:1009C0002708A0000800F601F11FE72CE82CEF2C07
:1009D000F009F109F00A0319F10AF601F60AF31F0A
:1009E000F22CF32CFC2CF209F309F20A0319F30A96
:1009F0000130F4007408F606F701F801700871047C
:100A00000319032D042D332DF501F50A102D0130A6
:100A1000F035F10D890B082D0130F4007408F5074D
:100A2000F11F132D142D072D0130F735F80D890B0B
:100A3000152D71087302031D1F2D70087202031C0F
:100A4000222D232D282D7008F2027108F33B771414
:100A50000130F136F00C890B292D0130F502031D10
:100A6000322D332D142D76080319372D382D3D2DB9
:100A7000F709F809F70A0319F80A7808F100770866
:100A8000F0000800210022080319472D482D4D2DA4
:100A90002208031D4C2D4D2D522D2008803103209E
:100AA0008531972D2208093E860087011600010432
:100AB00003195B2D5C2D7A2D2208093E86008701E3
:100AC000403FA300413FA4002208023E8600870168
:100AD000403FA500413FA6002608803AA700240811
:100AE000803A2702031D762D230825020318792D4D
:100AF0007A2D972D21002208023E860087012208C8
:100B000084008501003FA300013FA400403F23076C
:100B10008400413F243D8500200880002208023ED9
:100B2000860087010130810741310318810A0800DE
:100B30002100A601A31F9D2D9E2DA52DA209A3096D
:100B4000A20A0319A30AA601A60AA11FA82DA92D6E
:100B5000AE2DA009A109A00A0319A10A20082104A9
:100B60000319B32DB42DDD2DA501A50AC02D01302B
:100B7000A035A10D890BB82D0130A4002408A507CC
:100B8000A11FC32DC42DB72D21082302031DCA2D7B
:100B900020082202031CCD2DCE2DD22D2008A2022A
:100BA0002108A33B0130A136A00C890BD32D0130C5
:100BB000A502031DDC2DDD2DC42D26080319E12D12
:100BC000E22DE72DA209A309A20A0319A30A23080B
:100BD000A1002208A000080072080319F02DF12DD1
:100BE000F62D7208031DF52DF62DFB2D70088031B2
:100BF000022085313F2E7208093E860087011600CB
:100C000001040319042E052E232E7208093E8600C6
:100C10008701403FF300413FF4007208023E860026
:100C20008701403FF500413FF6007608803AF70023
:100C30007408803A7702031D1F2E7308750203188B
:100C4000222E232E3F2E7208023E86008701720854
:100C500084008501003FF300013FF400403F73072B
:100C60008400413F743D8500700880007208023E98
:100C7000860087010130810741310318810A08008D
:100C8000F601F31F442E452E4C2EF209F309F20A09
:100C90000319F30AF601F60AF11F4F2E502E552EB6
:100CA000F009F109F00A0319F10A70087104031937
:100CB0005A2E5B2E842EF501F50A672E0130F03591
:100CC000F10D890B5F2E0130F4007408F507F11F58
:100CD0006A2E6B2E5E2E71087302031D712E700832
:100CE0007202031C742E752E792E7008F2027108A0
:100CF000F33B0130F136F00C890B7A2E0130F5020E
:100D0000031D832E842E6B2E76080319882E892EC0
:100D10008E2EF209F309F20A0319F30A7308F1009F
:100D20007208F00008008731C82786318D319B2575
:100D300086318D31C52586318731F52786312100F1
:100D4000A40100308E31CA26863103302100D8003C
:100D50008A30D7005530890BAB2ED70BAB2ED80B72
:100D6000AB2E00328731F5278631873198278631BF
:100D70002100E20062088F31D52786312100A401CD
:100D800000308E31CA26863187311D2786310330E7
:100D90002100D8008A30D7005530890BCD2ED70BD3
:100DA000CD2ED80BCD2E00328D31A8258631B22E16
:100DB00080316E288D31BB258631F40100308E31B3
:100DC000AC26863121005F036004031DE82EE92E66
:100DD000032FE3302000B5000030B6000F30B7001D
:100DE0009030B800210062082000C700C801470801
:100DF000B9004808BA008F316B278631E3308E3155
:100E00008F2686311C2FE3302000B5000030B6005D
:100E10000030B7009030B800210062082000C70001
:100E2000C8014708B9004808BA008F316B278631DE
:100E3000E3308E318F26863108008731F5278731E0
:100E40002100A40100308E31CA26873121005F03C2
:100E50006004031D2C2F2D2F442FE330C3000030DE
:100E6000C4000F30C5009030C6006208D500D6011E
:100E70005508C7005608C8008F318E278731E330E8
:100E80008E31E92687315A2FE330C3000030C40089
:100E90000030C5009030C6006208D500D601550864
:100EA000C7005608C8008F318E278731E3308E3156
:100EB000E926873108002100AB01AC012608270490
:100EC0000319632F642F932FAD01AD0A702F0130EA
:100ED000A635A70D890B682F0130AA002A08AD0797
:100EE000A71F732F742F672F0130AB35AC0D890B03
:100EF000752F27082902031D7F2F26082802031CAF
:100F0000822F832F882F2608A8022708A93B2B149D
:100F10000130A736A60C890B892F0130AD02031DC5
:100F2000922F932F742F2C08A7002B08A6000800DF
:100F300021009D149D189D2F9E2F9A2F1C08D600CE
:100F40001B08D5001930C3009030C4005608C600F5
:100F50005508C5008F318E278731FF302100A6004C
:100F60000330A7005608A1005508A0002330A200B6
:100F70000030A3008F310827873121002108A90004
:100F80002008A80087315B27873121002608080048
:100F90003D002608E0391438A6003C002408E0395A
:100FA0001738A40021000E138E1723008E13210082
:100FB0000D1423000D101E121E119F119C010C30E8
:100FC0009B009D179E161D168B170B17210091165F
:100FD0008F31282787318D31A32587318D31B42575
:100FE0008731843121248731080001308E31612618
:100FF00087312100A40100308E31CA2687310800D4
:101B360023000C140C1008000134583458340034B7
:101B460022000C1521000C1108000B168B10210029
:101B560015138B170800640080010131890BAF2D26
:101B66000034403024009400223095009201080091
:101B760001308E3124268D31F40100308E31AC26B1
:101B86008D31080021001D148F309E05FC309E0506
:101B96001E119E1783309D050800F0002400951342
:101BA60070089100D72D64002400141CDB2DDC2D59
:101BB600D62D11080800F81BE12DE22DE32DEE2DA0
:101BC6007709F9007809FA00F90A0319FA0A790877
:101BD600F7007A08F80008002100A00024009513F9
:101BE6002100200824009100F92D64002400141C13
:101BF600FD2DFE2DF82D11080800F20022000C1113
:101C060040308D31D0258E3172088D31D0258E3100
:101C160071088D31D0258E3122000C150800210067
:101C2600A81B162E172E182E232E2709A9002809C1
:101C3600AA00A90A0319AA0A2908A7002A08A800BF
:101C46000800F3006030F10012308E3100268E312C
:101C56007308F10013308E3100268E312030F100EA
:101C660012308E3100268E310800F300E030F1008C
:101C760012308E3100268E317308F10013308E310A
:101C860000268E31A030F10012308E3100268E31C2
:101C960008002100A20022000C1140308D31EF25F2
:101CA6008E31210022088D31EF258E312100210849
:101CB6008D31EF258E3122000C1508002100A3007E
:101CC6006030A10012308E314C268E31210023085F
:101CD600A10013308E314C268E3120302100A10018
:101CE60012308E314C268E3108002100A300E030E0
:101CF600A10012308E314C268E3121002308A1001E
:101D060013308E314C268E31A0302100A1001230C6
:101D16008E314C268E310800F500F601A02E76088D
:101D26007507F40074088600870101088E3138268D
:101D36008E310130F4007408F60776087507F40052
:101D46007408860087010108031DAA2EAB2E922E69
:101D56000800F800023078020318B22EB32EC92EFE
:101D660078080319B72EB82EBE2EC0307404F500BD
:101D76000030F600C32E80307404F5000030F60003
:101D86007508F70077088E3124268E310800210069
:101D9600A800023028020318D12ED22EE82E2808D9
:101DA6000319D62ED72EDD2EC0302404A500003010
:101DB600A600E22E80302404A5000030A6002508E7
:101DC600A70027088E3161268E3108002100A60063
:101DD600A501FC2E25082607A400240886008701F5
:101DE60001088E3178268E3101302100A4002408A6
:101DF600A50725082607A4002408860087010108F0
:101E0600031D062F072FED2E08002100A401A501B2
:101E1600201C0E2F0F2F132F2208A4072308A53DE1
:101E26000130A235A30D890B142F0130A136A00C69
:101E3600890B192F20082104031D222F232F0B2F76
:101E46002508A1002408A000080022008E11210008
:101E56008E1122000E1221000E1622008E12210073
:101E66008E123C002108E0391438A1003D002308F9
:101E7600E0391038A3003C002008E0391338A000F0
:101E86003D002508E0391138A50008002100C000F2
:101E96003D08C2003C08C100D901DA015F2FC130FC
:101EA600AB003E08AC0040088131E9218F312100AA
:101EB6002B08D9072C08DA3D410884004208850022
:101EC6001200031D672F682F522FBC01BD010800A9
:101ED60039302000BB003608BD003508BC00BE0105
:101EE600BF01C501C6013808B0003708AF003B3056
:101EF600B1003C308F31B1278F3102303C3E860035
:101F06008701403F200035078400413F363D85006C
:101F1600003080000800C7302100C9004408CB000B
:101F26004308CA00CC01CD01D301D4014608BD0047
:101F36004508BC00C930BE00CA308F3149278F31F1
:101F46000230CA3E86008701403F210043078400D5
:101F5600413F443D85000030800008002000B2006B
:101F66003008B4002F08B3002100D901DA01C82FC8
:101F76003330FB003108FC003208803195208F3168
:101F86007B082100D9077C08DA3D2000330884004D
:101F9600340885001200031DD12FD22FBB2FAF01AD
:101FA600B00108002100AD000A30A0000030A100F9
:101FB6002D08A900AA012908A2002A08A300853134
:101FC60098258F3121002008303EAB000A30A00052
:101FD6000030A1002D08A900AA012908A2002A089C
:101FE600A300843183248F3121002008303EAC00C9
:101FF6002C08E3002B08E4000800443465346334FD
:1020060068346934663466347234653420343A345C
:1020160020342534643400344334683469346634F7
:1020260066347234653420343A34203425346434CA
:02203600003474
:020000040001F9
:04000E00EA3FFB1EAC
:00000001FF
