:04000000803118280B
:100008007E1480312100911E0A280B281628200012
:10001800911E0F28102816282300190820005407BD
:1000280023009A007E10090080311A2884319E240A
:100038008031D40084319F248031D5008431A024BC
:100048008031D6004D30840000308500073084317F
:1000580089248031A030840000308500203084312C
:10006800892480317E1020008231862A2000AB004E
:10007800240886008701403FA600413FA7002608C4
:100088008400270885001200253A031D4C284D28B6
:100098000D292408860087010130810741310318A2
:1000A800810ACD01CE010310003003180130D300BE
:1000B800FF30CF00FF30D000240886008701403F82
:1000C800AC00413FAD002C0884002D0885001200CB
:1000D800643A0319702871287B282C0884002D089D
:1000E80085001200693A031D7A287B280329250810
:1000F8008600870101088400850102308107003FDE
:10010800AE00013FAF002C08013EA60000302D3D97
:10011800A7002408860087012608C03F2708C13F9A
:100128002030B200AF1B99289B2801309C28003052
:10013800AA000130B2023208A03E860087010A30C8
:10014800F0000030F1002F08F3002E08F200823191
:10015800332280317108F8007008F7008431472491
:1001680080317708303E81000A30F6000030F70011
:1001780020002F08F9002E08F8008131262180314F
:1001880077082000AF007608AE002E082F04031968
:10019800CE28CF28D4283208031DD328D4289D2858
:1001A80032080319D828D928FC282A080319DD2879
:1001B800DE28FC280130B2023208A03E8600870102
:1001C8002D308100FC283208A03E860087010108F6
:1001D800A600A7012608F0002708F1002B08F20066
:1001E8008131DE21803101302000A6002608B207C7
:1001F80020303206031D01290229E728252920007D
:100208002408860087010130810741310318810ADB
:100218002529240886008701403FA600413FA70002
:1002280026088400270885000008A800A9012808D6
:10023800F0002908F1002B08F2008131DE2180311D
:10024800032908002000A101F71F2B292C29332995
:10025800F609F709F60A0319F70AA101A10AF91F15
:10026800362937294029F809F909F80A0319F90A3A
:100278000130FA007A08A106A201A30176087704E2
:100288000319472948297729A001A00A54290130D0
:10029800F635F70D890B4C290130FA007A08A007CA
:1002A800F71F572958294B290130A235A30D890B6F
:1002B800592977087902031D632976087802031CF7
:1002C800662967296C297608F8027708F93B221411
:1002D8000130F736F60C890B6D290130A002031D99
:1002E800762977295829210803197B297C2981290E
:1002F800A209A309A20A0319A30A2308F7002208DE
:10030800F6000800F1010030843135248131F10113
:1003180001308431352481312030F10012308431AC
:10032800352481311A30F400F830890B9929F40BFF
:10033800992900323C308431212481311A30F4006B
:10034800F830890BA529F40BA52900320C3084312B
:10035800212481311A30F400F830890BB129F40BCB
:10036800B129003201308431212481311A30F4005E
:10037800F830890BBD29F40BBD2900320C308431CB
:10038800212481310230F5005230F400A630890B67
:10039800CB29F40BCB29F50BCB29003280308431E3
:1003A800212481310330F4009830890BD929F40BCA
:1003B800D929080072080319E229E329E8297208F3
:1003C800031DE729E829ED2970088431A424813127
:1003D800322A7208093E86008701160001040319B3
:1003E800F629F729152A7208093E86008701403F39
:1003F800F300413FF4007208023E86008701403F47
:10040800F500413FF6007608803AF7007408803A14
:100418007702031D112A730875020318142A152A76
:10042800322A7208023E860087017208840085011C
:10043800403F0007F3000131413F003DF4007308DD
:10044800860074088700700881007208023E8600E2
:1004580087010130810741310318810A0800F6013C
:10046800F31F372A382A3F2AF209F309F20A031937
:10047800F30AF601F60AF11F422A432A482AF0092C
:10048800F109F00A0319F10A7008710403194D2AD9
:100498004E2A772AF501F50A5A2A0130F035F10D6E
:1004A800890B522A0130F4007408F507F11F5D2A00
:1004B8005E2A512A71087302031D642A70087202A9
:1004C800031C672A682A6C2A7008F2027108F33B39
:1004D8000130F136F00C890B6D2A0130F502031D4D
:1004E800762A772A5E2A760803197B2A7C2A812AAB
:1004F800F209F309F20A0319F30A7308F100720802
:10050800F000080083312B23823184319A24823110
:10051800843166248231843171248231F4010030BF
:100528008331B623823155308331D42382318431EB
:10053800712482318431712482318231CF22823117
:100548002000D4005408833100238231F4010030A4
:100558008331B623823103018331D42382310330BE
:100568002000CC008A30CB005530890BB92ACB0B40
:10057800B92ACC0BB92A003220000D1CC42AC52A7E
:10058800C92A8431822482319E2A84318F2482317F
:100598009E2A8031182821009D149D18D42AD52A16
:1005A800D12A1C08FD001B08FC0000302000B900FF
:1005B800BA00A130BB008430BC007D08BE007C08B6
:1005C800BD00833154238231FF30F6000330F70039
:1005D8007D08F1007C08F0002330F2000030F300C1
:1005E8008331972382317108F9007008F80081314E
:1005F80026218231760808002000A6000A30F00083
:100608000030F1002608FB00FC017B08F2007C08A2
:10061800F3008231332283317008303E2000A40079
:100628000A30F6000030F7002608FB00FC017B08C2
:10063800F8007C08F9008131262183317608303EA4
:100648002000A5002508D5002408D60008003D0094
:100658002608E0391438A6003C002408E039173889
:10066800A40021000E138E1723008E131E121E11D4
:100678009F119C010C309B009D179E161D168B1711
:100688000B17210091168331762383318431952409
:10069800833184317B248331813186218331080081
:1006A8003D302000BF003A08C1003908C000C2012F
:1006B800C301C901CA013C08B4003B08B3003F307C
:1006C800B50040308331F12383310230403E86004B
:1006D8008701403F200039078400413F3A3D8500AB
:1006E8008001080022008E1121008E1122000E12B6
:1006F80021000E1622008E1221008E123C002108C5
:10070800E0391438A1003D002308E0391038A3006F
:100718003C002008E0391338A0003D002508E039E6
:100728001138A5000800F401F501701C9C2B9D2BC5
:10073800A12B7208F4077308F53D0130F235F30D6B
:10074800890BA22B0130F136F00C890BA72B70080E
:100758007104031DB02BB12B992B7508F100740897
:10076800F0000800F800023078020318BC2BBD2BFB
:10077800D32B78080319C12BC22BC82BC0307404A3
:10078800F5000030F600CD2B80307404F500003001
:10079800F6007508F70077088431212483310800B2
:1007A800F600F501E52B75087607F4007408860055
:1007B8008701010884310D2483310130F400740865
:1007C800F50775087607F4007408860087010108A4
:1007D800031DEF2BF02BD72B08002000B6003408A0
:1007E800B8003308B700002C3730A4003508A5003E
:1007F800360880313A2083312000370884003808D1
:1008080085001200031D092C0A2CF82BB301B40132
:100818000800F300E030F1001230843135248431CF
:100828007308F1001330843135248431A030F1008D
:1008380012308431352484310800F3006030F1002F
:1008480012308431352484317308F1001330843137
:10085800352484312030F10012308431352484313C
:100868000800F20022000C114030843158248431F1
:1008780072088431582484317108843158248431B1
:1008880022000C150800F81B4A2C4B2C4C2C572C1A
:100898007709F9007809FA00F90A0319FA0A7908B8
:1008A800F7007A08F8000800F00024009513700893
:1008B80091005F2C64002400141C632C642C5E2CB3
:1008C8001108080021001D148F309E05FC309E057C
:1008D8001E119E1783309D050800013084312124A4
:1008E8008431F40100308331B6238431080040306C
:1008F8002400940022309500920108002300190872
:100908002000540723009A00080064008001013188
:10091800890B8A2C003420005408230019029A00FD
:10092800080022000C1521000C11080023000C14EB
:100938000C10080001345834583425346434003419
:020948000800A5
:020000040001F9
:04000E00EA3FFB1EAC
:00000001FF
