:08000000803102288731FD2F39
:100F5C0023000C140C10080021000F1022000F109D
:100F6C00080021009D149D18BC2FBD2FB92F08001F
:100F7C0021001D148F309E05FC309E051E119E1302
:100F8C0083309D050800033020009C041C15FF30A5
:100F9C009B000F303D00A8002C009C1766309B0076
:100FAC003F309A0508008731B22787318731AE2749
:100FBC0087318731BE2787318731C9278731220096
:100FCC000F148731B727873121001C082C009B0098
:100FDC0021001B08F000F00EF00DF00D2C001A088B
:100FEC0070063F3970069A00E72F803102282000E6
:040FFC008731D92F31
:020000040001F9
:04000E00EA3FFB1EAC
:00000001FF
