:08000000803102288731FD2F39
:100EEE0020001C08FC3902389C0087309C057C30A1
:100EFE009B001C159A0108007D30F1000030F200B5
:100F0E00F301F401942F2000911C8E2F8F2F8A2F26
:100F1E0091100130F3070030F43D7408803AF00070
:100F2E007208803A7002031D9E2F71087302031C13
:100F3E00A12FA22F8A2F080021000F1022000F10C0
:100F4E0021008F1022008F1021000F1122000F118F
:100F5E0021008F1122008F1121000D1022000D1083
:100F6E0021008D1022008D1021000D1122000D1177
:100F7E0021008D1122008D1108008731A3278731A2
:100F8E0087317727873187318327873122000F14E6
:100F9E008D1187318327873122008F140F108731EF
:100FAE008327873122000F158F10873183278731D2
:100FBE0022008F150F1187318327873122000D14E0
:100FCE008F1187318327873122008D140D108731C1
:100FDE008327873122000D158D10873183278731A6
:100FEE0022008D150D11CA2F803102282000873165
:020FFE00C42FFE
:020000040001F9
:04000E00EA3FFB1EAC
:00000001FF
